:100000000C9446000C945D000C945D000C945D0013
:100010000C945D000C945D000C945D000C945D00EC
:100020000C945D000C945D000C945D000C945D00DC
:100030000C945D000C945D000C945D000C945D00CC
:100040000C945D000C945D000C945D000C945D00BC
:100050000C945D000C945D000C945D000C945D00AC
:100060000C945D000C945D000C945D000C945D009C
:100070000C945D000C945D000C945D000C945D008C
:100080000C945D000C945D000C945D0011241FBE67
:10009000CFEFD0E1DEBFCDBF11E0A0E0B1E0E6E1FF
:1000A000F1E000E00BBF02C007900D92A030B10755
:1000B000D9F70E947F000C9489000C94000080EF17
:1000C00087BB81BB10926400089582BB88BB0895F2
:1000D0008DE690E082BB88BB089580E890E00E94A6
:1000E000650088EE93E020E43CE9F9013197F1F7EF
:1000F0000197D9F781E090E00E946800089580EFB1
:1001000087BB81BB109264000E946D0080E090E08C
:060110000895F894FFCFF2
:00000001FF
