:020000020000FC
:0200000045C0F9
:10008C0000916400007E009364000FEF0ABB00E156
:10009C000EBF0FEF0DBF00C050E04091630040FD5C
:1000AC000ED041FD0FD010D0503019F0513021F04E
:1000BC00F4CF29E118E1FCCF20E215E1F9CF51E0B2
:1000CC0003D0089550E00895012F0F7000680BBB0A
:1000DC0014D0012F02950F7000690BBB02950DD047
:1000EC00022F0F70006A0BBB08D0022F02950F7005
:1000FC00006B0BBB029501D008959F938F939FEFDC
:10010C008FE09A95F1F78A95E1F78F919F91089579
:00000001FF
