:100000000C9446000C945D000C945D000C945D0013
:100010000C945D000C945D000C945D000C945D00EC
:100020000C945D000C945D000C945D000C945D00DC
:100030000C945D000C945D000C945D000C945D00CC
:100040000C945D000C945D000C945D000C945D00BC
:100050000C945D000C945D000C945D000C945D00AC
:100060000C945D000C945D000C945D000C945D009C
:100070000C945D000C945D000C945D000C945D008C
:100080000C945D000C945D000C945D0011241FBE67
:10009000CFEFD0E1DEBFCDBF11E0A0E0B1E0E8E0FE
:1000A000F1E000E00BBF02C007900D92A030B10755
:1000B000D9F70E9467000C9482000C94000080EF36
:1000C00087BB81BB1092640084E082B9089580EF01
:1000D00087BB81BB1092640084E082B948E020E9CC
:1000E00031E043B988EC90E0F9013197F1F70197DD
:1000F000D9F713B888EC90E0F9013197F1F701973F
:08010000D9F7EFCFF894FFCF0F
:00000001FF
