:100000000C9446000C945D000C945D000C945D0013
:100010000C945D000C945D000C945D000C945D00EC
:100020000C945D000C945D000C945D000C945D00DC
:100030000C945D000C945D000C945D000C945D00CC
:100040000C945D000C945D000C945D000C945D00BC
:100050000C945D000C945D000C945D000C945D00AC
:100060000C945D000C945D000C945D000C945D009C
:100070000C945D000C945D000C945D000C945D008C
:100080000C945D000C945D000C945D0011241FBE67
:10009000CFEFD0E1DEBFCDBF11E0A0E0B1E0ECE7F3
:1000A000F1E000E00BBF02C007900D92AA30B1074B
:1000B000D9F70E9466000C94BC000C9400001092CA
:1000C00064008FEF8ABB88E784BB0895EF92FF92AC
:1000D0000F931F93DF93CF93CDB7DEB72A970FB659
:1000E000F894DEBF0FBECDBFDE011196E0E0F1E077
:1000F0008AE001900D928150E1F7109264008FEF39
:100100008ABB88E784BB60E048E050E090E2E92EDB
:100110009EE4F92E8E010F5F1F4FA0E4BCE940342E
:10012000510511F448E050E045BBC7010197F1F7D4
:1001300083B390E08095909587709070842B952B79
:10014000F801E60FF11D208130E08217930731F4AA
:10015000862F806B8BBBCD010197F1F76F5F6A3003
:1001600008F060E0440F551FDACF806B8BBB80E452
:0C0170009CE90197F1F70895F894FFCF87
:0A017C0042090A0C1112142122247A
:00000001FF
