:020000020000FC
:02000000FFC03F
:1002000000E0009364000FEF0ABB00E10EBF0FEFA8
:100210000DBF00C000916500003029F0013089F168
:10022000023079F1F7CF10E812601BBB0E94550134
:1002300010E919601BBB0E94550110EA19601BBB35
:100240000E94550110EB11601BBB0E945501E2CFCB
:10025000009165000030F1F210E814601BBB0E94B1
:10026000550110E911601BBB0E94550110EB106095
:100270001BBB0E94550110EA11601BBB0E94550177
:10028000E7CF00916500003029F210E819601BBB30
:100290000E94550110E917601BBB0E94550110E830
:1002A00018601BBB0E945501ECCF21E034E642E30D
:0E02B0004A95F1F73A95E1F72A95D1F70895AE
:00000001FF
